{
  "_format": "hh-sol-artifact-1",
  "contractName": "Voting",
  "sourceName": "contracts/Voting.sol",
  "abi": [
    {
      "inputs": [],
      "stateMutability": "nonpayable",
      "type": "constructor"
    },
    {
      "anonymous": false,
      "inputs": [
        {
          "indexed": true,
          "internalType": "uint256",
          "name": "_candidateId",
          "type": "uint256"
        }
      ],
      "name": "Voted",
      "type": "event"
    },
    {
      "inputs": [
        {
          "internalType": "string",
          "name": "_partyName",
          "type": "string"
        },
        {
          "internalType": "string",
          "name": "_candidateName",
          "type": "string"
        },
        {
          "internalType": "string",
          "name": "_partyLogo",
          "type": "string"
        },
        {
          "internalType": "string",
          "name": "_description",
          "type": "string"
        }
      ],
      "name": "addCandidate",
      "outputs": [],
      "stateMutability": "nonpayable",
      "type": "function"
    },
    {
      "inputs": [
        {
          "internalType": "address",
          "name": "_voterAddress",
          "type": "address"
        },
        {
          "internalType": "string",
          "name": "_aid",
          "type": "string"
        },
        {
          "internalType": "string",
          "name": "_vid",
          "type": "string"
        },
        {
          "internalType": "string",
          "name": "_name",
          "type": "string"
        },
        {
          "internalType": "string",
          "name": "_email",
          "type": "string"
        },
        {
          "internalType": "string",
          "name": "_region",
          "type": "string"
        },
        {
          "internalType": "string",
          "name": "_phone",
          "type": "string"
        }
      ],
      "name": "addVoter",
      "outputs": [],
      "stateMutability": "nonpayable",
      "type": "function"
    },
    {
      "inputs": [],
      "name": "candidatesCount",
      "outputs": [
        {
          "internalType": "uint256",
          "name": "",
          "type": "uint256"
        }
      ],
      "stateMutability": "view",
      "type": "function"
    },
    {
      "inputs": [],
      "name": "electionState",
      "outputs": [
        {
          "internalType": "uint256",
          "name": "",
          "type": "uint256"
        }
      ],
      "stateMutability": "view",
      "type": "function"
    },
    {
      "inputs": [],
      "name": "endElection",
      "outputs": [],
      "stateMutability": "nonpayable",
      "type": "function"
    },
    {
      "inputs": [],
      "name": "generateGenerateRID",
      "outputs": [
        {
          "internalType": "uint256",
          "name": "",
          "type": "uint256"
        }
      ],
      "stateMutability": "view",
      "type": "function"
    },
    {
      "inputs": [],
      "name": "getCandidateCount",
      "outputs": [
        {
          "internalType": "uint256",
          "name": "",
          "type": "uint256"
        }
      ],
      "stateMutability": "view",
      "type": "function"
    },
    {
      "inputs": [
        {
          "internalType": "uint256",
          "name": "_candidateId",
          "type": "uint256"
        }
      ],
      "name": "getCandidateDetails",
      "outputs": [
        {
          "internalType": "string",
          "name": "",
          "type": "string"
        },
        {
          "internalType": "string",
          "name": "",
          "type": "string"
        },
        {
          "internalType": "uint256",
          "name": "",
          "type": "uint256"
        },
        {
          "internalType": "string",
          "name": "",
          "type": "string"
        },
        {
          "internalType": "string",
          "name": "",
          "type": "string"
        }
      ],
      "stateMutability": "view",
      "type": "function"
    },
    {
      "inputs": [],
      "name": "getElectionState",
      "outputs": [
        {
          "internalType": "uint256",
          "name": "",
          "type": "uint256"
        }
      ],
      "stateMutability": "view",
      "type": "function"
    },
    {
      "inputs": [
        {
          "internalType": "address",
          "name": "_current",
          "type": "address"
        }
      ],
      "name": "getRole",
      "outputs": [
        {
          "internalType": "uint256",
          "name": "",
          "type": "uint256"
        }
      ],
      "stateMutability": "view",
      "type": "function"
    },
    {
      "inputs": [
        {
          "internalType": "uint256",
          "name": "_receiptID",
          "type": "uint256"
        }
      ],
      "name": "getVoterBill",
      "outputs": [
        {
          "internalType": "string",
          "name": "",
          "type": "string"
        },
        {
          "internalType": "string",
          "name": "",
          "type": "string"
        },
        {
          "internalType": "uint256",
          "name": "",
          "type": "uint256"
        }
      ],
      "stateMutability": "view",
      "type": "function"
    },
    {
      "inputs": [],
      "name": "getVoterCount",
      "outputs": [
        {
          "internalType": "uint256",
          "name": "",
          "type": "uint256"
        }
      ],
      "stateMutability": "view",
      "type": "function"
    },
    {
      "inputs": [],
      "name": "owner",
      "outputs": [
        {
          "internalType": "address",
          "name": "",
          "type": "address"
        }
      ],
      "stateMutability": "view",
      "type": "function"
    },
    {
      "inputs": [],
      "name": "receiptID",
      "outputs": [
        {
          "internalType": "uint256",
          "name": "",
          "type": "uint256"
        }
      ],
      "stateMutability": "view",
      "type": "function"
    },
    {
      "inputs": [],
      "name": "refreshElection",
      "outputs": [],
      "stateMutability": "nonpayable",
      "type": "function"
    },
    {
      "inputs": [],
      "name": "startElection",
      "outputs": [],
      "stateMutability": "nonpayable",
      "type": "function"
    },
    {
      "inputs": [
        {
          "internalType": "uint256",
          "name": "_candidateId",
          "type": "uint256"
        }
      ],
      "name": "vote",
      "outputs": [],
      "stateMutability": "nonpayable",
      "type": "function"
    },
    {
      "inputs": [],
      "name": "votersCount",
      "outputs": [
        {
          "internalType": "uint256",
          "name": "",
          "type": "uint256"
        }
      ],
      "stateMutability": "view",
      "type": "function"
    }
  ],
  "bytecode": "0x608060405260006001556000600655611276600855600060095534801561002557600080fd5b50336000806101000a81548173ffffffffffffffffffffffffffffffffffffffff021916908373ffffffffffffffffffffffffffffffffffffffff16021790555060006001819055506122558061007d6000396000f3fe608060405234801561001057600080fd5b50600436106101165760003560e01c806344276733116100a257806398c079381161007157806398c07938146102af578063ad79656d146102cd578063cf6ecf0e146102d7578063d8057cce146102f5578063f869809c1461031357610116565b8063442767331461024d57806359f784681461027d57806362d73eb8146102875780638da5cb5b1461029157610116565b80632280043d116100e95780632280043d146101a357806327f9fd50146101c15780632d35a8a2146101f557806330a563471461021357806342b03cc91461023157610116565b80630121b93f1461011b5780630b0c5ccd146101375780630b449f151461015357806311174a2914610185575b600080fd5b610135600480360381019061013091906113b3565b610331565b005b610151600480360381019061014c9190611584565b6106db565b005b61016d600480360381019061016891906113b3565b6109f3565b60405161017c9392919061175c565b60405180910390f35b61018d610c04565b60405161019a91906117a1565b60405180910390f35b6101ab610c0e565b6040516101b891906117a1565b60405180910390f35b6101db60048036038101906101d691906113b3565b610c14565b6040516101ec9594939291906117bc565b60405180910390f35b6101fd610f1f565b60405161020a91906117a1565b60405180910390f35b61021b610f25565b60405161022891906117a1565b60405180910390f35b61024b6004803603810190610246919061182b565b610f2f565b005b61026760048036038101906102629190611902565b6110d4565b60405161027491906117a1565b60405180910390f35b610285611197565b005b61028f611207565b005b610299611277565b6040516102a6919061193e565b60405180910390f35b6102b761129b565b6040516102c491906117a1565b60405180910390f35b6102d56112a1565b005b6102df611312565b6040516102ec91906117a1565b60405180910390f35b6102fd611359565b60405161030a91906117a1565b60405180910390f35b61031b61135f565b60405161032891906117a1565b60405180910390f35b6001805414610375576040517f08c379a000000000000000000000000000000000000000000000000000000000815260040161036c906119a5565b60405180910390fd5b600560003373ffffffffffffffffffffffffffffffffffffffff1673ffffffffffffffffffffffffffffffffffffffff16815260200190815260200160002060009054906101000a900460ff16610401576040517f08c379a00000000000000000000000000000000000000000000000000000000081526004016103f890611a11565b60405180910390fd5b600460003373ffffffffffffffffffffffffffffffffffffffff1673ffffffffffffffffffffffffffffffffffffffff16815260200190815260200160002060009054906101000a900460ff161561048e576040517f08c379a000000000000000000000000000000000000000000000000000000000815260040161048590611a7d565b60405180910390fd5b600081101580156104a0575060065481105b6104df576040517f08c379a00000000000000000000000000000000000000000000000000000000081526004016104d690611ae9565b60405180910390fd5b60026000828152602001908152602001600020600501600081548092919061050690611b38565b91905055506001600460003373ffffffffffffffffffffffffffffffffffffffff1673ffffffffffffffffffffffffffffffffffffffff16815260200190815260200160002060006101000a81548160ff021916908315150217905550600854600a60003373ffffffffffffffffffffffffffffffffffffffff1673ffffffffffffffffffffffffffffffffffffffff168152602001908152602001600020819055506002600082815260200190815260200160002060010160076000600854815260200190815260200160002060000190816105e39190611db7565b5060026000828152602001908152602001600020600201600760006008548152602001908152602001600020600101908161061e9190611db7565b5042600760006008548152602001908152602001600020600201819055503360076000600854815260200190815260200160002060030160006101000a81548173ffffffffffffffffffffffffffffffffffffffff021916908373ffffffffffffffffffffffffffffffffffffffff160217905550600860008154809291906106a690611b38565b9190505550807f7f511e347bf51eed3be100b3194247d5207f05f3b33de7d31e3e8ee73199a04960405160405180910390a250565b3373ffffffffffffffffffffffffffffffffffffffff1660008054906101000a900473ffffffffffffffffffffffffffffffffffffffff1673ffffffffffffffffffffffffffffffffffffffff1614610769576040517f08c379a000000000000000000000000000000000000000000000000000000000815260040161076090611eeb565b60405180910390fd5b600560008873ffffffffffffffffffffffffffffffffffffffff1673ffffffffffffffffffffffffffffffffffffffff16815260200190815260200160002060009054906101000a900460ff16156107f6576040517f08c379a00000000000000000000000000000000000000000000000000000000081526004016107ed90611f57565b60405180910390fd5b60006001541461083b576040517f08c379a000000000000000000000000000000000000000000000000000000000815260040161083290611fe9565b60405180910390fd5b60405180610100016040528060095481526020018873ffffffffffffffffffffffffffffffffffffffff168152602001878152602001868152602001858152602001848152602001838152602001828152506003600060095481526020019081526020016000206000820151816000015560208201518160010160006101000a81548173ffffffffffffffffffffffffffffffffffffffff021916908373ffffffffffffffffffffffffffffffffffffffff16021790555060408201518160020190816109089190612009565b50606082015181600301908161091e9190612009565b5060808201518160040190816109349190612009565b5060a082015181600501908161094a9190612009565b5060c08201518160060190816109609190612009565b5060e08201518160070190816109769190612009565b509050506001600560008973ffffffffffffffffffffffffffffffffffffffff1673ffffffffffffffffffffffffffffffffffffffff16815260200190815260200160002060006101000a81548160ff021916908315150217905550600960008154809291906109e590611b38565b919050555050505050505050565b60608060006007600085815260200190815260200160002060030160009054906101000a900473ffffffffffffffffffffffffffffffffffffffff1673ffffffffffffffffffffffffffffffffffffffff163373ffffffffffffffffffffffffffffffffffffffff1614610a9c576040517f08c379a0000000000000000000000000000000000000000000000000000000008152600401610a9390612127565b60405180910390fd5b60076000858152602001908152602001600020600001600760008681526020019081526020016000206001016007600087815260200190815260200160002060020154828054610aeb90611baf565b80601f0160208091040260200160405190810160405280929190818152602001828054610b1790611baf565b8015610b645780601f10610b3957610100808354040283529160200191610b64565b820191906000526020600020905b815481529060010190602001808311610b4757829003601f168201915b50505050509250818054610b7790611baf565b80601f0160208091040260200160405190810160405280929190818152602001828054610ba390611baf565b8015610bf05780601f10610bc557610100808354040283529160200191610bf0565b820191906000526020600020905b815481529060010190602001808311610bd357829003601f168201915b505050505091509250925092509193909250565b6000600954905090565b60015481565b606080600060608060008610158015610c2e575060065486105b610c6d576040517f08c379a0000000000000000000000000000000000000000000000000000000008152600401610c6490611ae9565b60405180910390fd5b60026000878152602001908152602001600020600101600260008881526020019081526020016000206002016002600089815260200190815260200160002060050154600260008a8152602001908152602001600020600301600260008b8152602001908152602001600020600401848054610ce890611baf565b80601f0160208091040260200160405190810160405280929190818152602001828054610d1490611baf565b8015610d615780601f10610d3657610100808354040283529160200191610d61565b820191906000526020600020905b815481529060010190602001808311610d4457829003601f168201915b50505050509450838054610d7490611baf565b80601f0160208091040260200160405190810160405280929190818152602001828054610da090611baf565b8015610ded5780601f10610dc257610100808354040283529160200191610ded565b820191906000526020600020905b815481529060010190602001808311610dd057829003601f168201915b50505050509350818054610e0090611baf565b80601f0160208091040260200160405190810160405280929190818152602001828054610e2c90611baf565b8015610e795780601f10610e4e57610100808354040283529160200191610e79565b820191906000526020600020905b815481529060010190602001808311610e5c57829003601f168201915b50505050509150808054610e8c90611baf565b80601f0160208091040260200160405190810160405280929190818152602001828054610eb890611baf565b8015610f055780601f10610eda57610100808354040283529160200191610f05565b820191906000526020600020905b815481529060010190602001808311610ee857829003601f168201915b505050505090509450945094509450945091939590929450565b60065481565b6000600654905090565b3373ffffffffffffffffffffffffffffffffffffffff1660008054906101000a900473ffffffffffffffffffffffffffffffffffffffff1673ffffffffffffffffffffffffffffffffffffffff1614610fbd576040517f08c379a0000000000000000000000000000000000000000000000000000000008152600401610fb490612193565b60405180910390fd5b600060015414611002576040517f08c379a0000000000000000000000000000000000000000000000000000000008152600401610ff9906121ff565b60405180910390fd5b6040518060c00160405280600654815260200185815260200184815260200183815260200182815260200160008152506002600060065481526020019081526020016000206000820151816000015560208201518160010190816110669190612009565b50604082015181600201908161107c9190612009565b5060608201518160030190816110929190612009565b5060808201518160040190816110a89190612009565b5060a08201518160050155905050600660008154809291906110c990611b38565b919050555050505050565b60008173ffffffffffffffffffffffffffffffffffffffff1660008054906101000a900473ffffffffffffffffffffffffffffffffffffffff1673ffffffffffffffffffffffffffffffffffffffff16036111325760019050611192565b600560008373ffffffffffffffffffffffffffffffffffffffff1673ffffffffffffffffffffffffffffffffffffffff16815260200190815260200160002060009054906101000a900460ff161561118d5760029050611192565b600390505b919050565b60008054906101000a900473ffffffffffffffffffffffffffffffffffffffff1673ffffffffffffffffffffffffffffffffffffffff163373ffffffffffffffffffffffffffffffffffffffff16146111ef57600080fd5b60018054146111fd57600080fd5b6002600181905550565b60008054906101000a900473ffffffffffffffffffffffffffffffffffffffff1673ffffffffffffffffffffffffffffffffffffffff163373ffffffffffffffffffffffffffffffffffffffff161461125f57600080fd5b60006001541461126e57600080fd5b60018081905550565b60008054906101000a900473ffffffffffffffffffffffffffffffffffffffff1681565b60095481565b60008054906101000a900473ffffffffffffffffffffffffffffffffffffffff1673ffffffffffffffffffffffffffffffffffffffff163373ffffffffffffffffffffffffffffffffffffffff16146112f957600080fd5b60026001541461130857600080fd5b6000600181905550565b6000600a60003373ffffffffffffffffffffffffffffffffffffffff1673ffffffffffffffffffffffffffffffffffffffff16815260200190815260200160002054905090565b60085481565b6000600154905090565b6000604051905090565b600080fd5b600080fd5b6000819050919050565b6113908161137d565b811461139b57600080fd5b50565b6000813590506113ad81611387565b92915050565b6000602082840312156113c9576113c8611373565b5b60006113d78482850161139e565b91505092915050565b600073ffffffffffffffffffffffffffffffffffffffff82169050919050565b600061140b826113e0565b9050919050565b61141b81611400565b811461142657600080fd5b50565b60008135905061143881611412565b92915050565b600080fd5b600080fd5b6000601f19601f8301169050919050565b7f4e487b7100000000000000000000000000000000000000000000000000000000600052604160045260246000fd5b61149182611448565b810181811067ffffffffffffffff821117156114b0576114af611459565b5b80604052505050565b60006114c3611369565b90506114cf8282611488565b919050565b600067ffffffffffffffff8211156114ef576114ee611459565b5b6114f882611448565b9050602081019050919050565b82818337600083830152505050565b6000611527611522846114d4565b6114b9565b90508281526020810184848401111561154357611542611443565b5b61154e848285611505565b509392505050565b600082601f83011261156b5761156a61143e565b5b813561157b848260208601611514565b91505092915050565b600080600080600080600060e0888a0312156115a3576115a2611373565b5b60006115b18a828b01611429565b975050602088013567ffffffffffffffff8111156115d2576115d1611378565b5b6115de8a828b01611556565b965050604088013567ffffffffffffffff8111156115ff576115fe611378565b5b61160b8a828b01611556565b955050606088013567ffffffffffffffff81111561162c5761162b611378565b5b6116388a828b01611556565b945050608088013567ffffffffffffffff81111561165957611658611378565b5b6116658a828b01611556565b93505060a088013567ffffffffffffffff81111561168657611685611378565b5b6116928a828b01611556565b92505060c088013567ffffffffffffffff8111156116b3576116b2611378565b5b6116bf8a828b01611556565b91505092959891949750929550565b600081519050919050565b600082825260208201905092915050565b60005b838110156117085780820151818401526020810190506116ed565b60008484015250505050565b600061171f826116ce565b61172981856116d9565b93506117398185602086016116ea565b61174281611448565b840191505092915050565b6117568161137d565b82525050565b600060608201905081810360008301526117768186611714565b9050818103602083015261178a8185611714565b9050611799604083018461174d565b949350505050565b60006020820190506117b6600083018461174d565b92915050565b600060a08201905081810360008301526117d68188611714565b905081810360208301526117ea8187611714565b90506117f9604083018661174d565b818103606083015261180b8185611714565b9050818103608083015261181f8184611714565b90509695505050505050565b6000806000806080858703121561184557611844611373565b5b600085013567ffffffffffffffff81111561186357611862611378565b5b61186f87828801611556565b945050602085013567ffffffffffffffff8111156118905761188f611378565b5b61189c87828801611556565b935050604085013567ffffffffffffffff8111156118bd576118bc611378565b5b6118c987828801611556565b925050606085013567ffffffffffffffff8111156118ea576118e9611378565b5b6118f687828801611556565b91505092959194509250565b60006020828403121561191857611917611373565b5b600061192684828501611429565b91505092915050565b61193881611400565b82525050565b6000602082019050611953600083018461192f565b92915050565b7f456c656374696f6e206973206e6f7420696e2070726f67726573730000000000600082015250565b600061198f601b836116d9565b915061199a82611959565b602082019050919050565b600060208201905081810360008301526119be81611982565b9050919050565b7f4e6f6e20617574686f726973656420757365722063616e6e6f7420766f746500600082015250565b60006119fb601f836116d9565b9150611a06826119c5565b602082019050919050565b60006020820190508181036000830152611a2a816119ee565b9050919050565b7f596f75206861766520616c726561647920766f74656400000000000000000000600082015250565b6000611a676016836116d9565b9150611a7282611a31565b602082019050919050565b60006020820190508181036000830152611a9681611a5a565b9050919050565b7f496e76616c69642063616e646964617465204944000000000000000000000000600082015250565b6000611ad36014836116d9565b9150611ade82611a9d565b602082019050919050565b60006020820190508181036000830152611b0281611ac6565b9050919050565b7f4e487b7100000000000000000000000000000000000000000000000000000000600052601160045260246000fd5b6000611b438261137d565b91507fffffffffffffffffffffffffffffffffffffffffffffffffffffffffffffffff8203611b7557611b74611b09565b5b600182019050919050565b7f4e487b7100000000000000000000000000000000000000000000000000000000600052602260045260246000fd5b60006002820490506001821680611bc757607f821691505b602082108103611bda57611bd9611b80565b5b50919050565b600081549050611bef81611baf565b9050919050565b60008190508160005260206000209050919050565b60008190508160005260206000209050919050565b60006020601f8301049050919050565b600082821b905092915050565b600060088302611c6d7fffffffffffffffffffffffffffffffffffffffffffffffffffffffffffffffff82611c30565b611c778683611c30565b95508019841693508086168417925050509392505050565b6000819050919050565b6000611cb4611caf611caa8461137d565b611c8f565b61137d565b9050919050565b6000819050919050565b611cce83611c99565b611ce2611cda82611cbb565b848454611c3d565b825550505050565b600090565b611cf7611cea565b611d02818484611cc5565b505050565b5b81811015611d2657611d1b600082611cef565b600181019050611d08565b5050565b601f821115611d6b57611d3c81611bf6565b611d4584611c20565b81016020851015611d54578190505b611d68611d6085611c20565b830182611d07565b50505b505050565b600082821c905092915050565b6000611d8e60001984600802611d70565b1980831691505092915050565b6000611da78383611d7d565b9150826002028217905092915050565b818103611dc5575050611e9d565b611dce82611be0565b67ffffffffffffffff811115611de757611de6611459565b5b611df18254611baf565b611dfc828285611d2a565b6000601f831160018114611e2b5760008415611e19578287015490505b611e238582611d9b565b865550611e96565b601f198416611e3987611c0b565b9650611e4486611bf6565b60005b82811015611e6c57848901548255600182019150600185019450602081019050611e47565b86831015611e895784890154611e85601f891682611d7d565b8355505b6001600288020188555050505b5050505050505b565b7f4f6e6c79206f776e65722063616e2061646420766f7465720000000000000000600082015250565b6000611ed56018836116d9565b9150611ee082611e9f565b602082019050919050565b60006020820190508181036000830152611f0481611ec8565b9050919050565b7f566f74657220616c726561647920616464656400000000000000000000000000600082015250565b6000611f416013836116d9565b9150611f4c82611f0b565b602082019050919050565b60006020820190508181036000830152611f7081611f34565b9050919050565b7f566f7465722063616e277420626520616464656420616674657220656c65637460008201527f696f6e2073746172746564000000000000000000000000000000000000000000602082015250565b6000611fd3602b836116d9565b9150611fde82611f77565b604082019050919050565b6000602082019050818103600083015261200281611fc6565b9050919050565b612012826116ce565b67ffffffffffffffff81111561202b5761202a611459565b5b6120358254611baf565b612040828285611d2a565b600060209050601f8311600181146120735760008415612061578287015190505b61206b8582611d9b565b8655506120d3565b601f19841661208186611bf6565b60005b828110156120a957848901518255600182019150602085019450602081019050612084565b868310156120c657848901516120c2601f891682611d7d565b8355505b6001600288020188555050505b505050505050565b7f496e76616c6964204163636f756e740000000000000000000000000000000000600082015250565b6000612111600f836116d9565b915061211c826120db565b602082019050919050565b6000602082019050818103600083015261214081612104565b9050919050565b7f4f6e6c79206f776e65722063616e206164642063616e64696461746573000000600082015250565b600061217d601d836116d9565b915061218882612147565b602082019050919050565b600060208201905081810360008301526121ac81612170565b9050919050565b7f456c656374696f6e2068617320616c7265616479207374617274656400000000600082015250565b60006121e9601c836116d9565b91506121f4826121b3565b602082019050919050565b60006020820190508181036000830152612218816121dc565b905091905056fea26469706673582212206673cf08fc13e94f52ad9a6aa95e1787f5f30c49ba832b1f6ed49c52fc764e6564736f6c63430008140033",
  "linkReferences": {},
  "deployedLinkReferences": {}
}